{
  "contractName": "Campaign",
  "abi": [
    {
      "inputs": [
        {
          "internalType": "uint256",
          "name": "minimumAmount",
          "type": "uint256"
        },
        {
          "internalType": "address",
          "name": "creator",
          "type": "address"
        }
      ],
      "stateMutability": "nonpayable",
      "type": "constructor"
    },
    {
      "inputs": [
        {
          "internalType": "address",
          "name": "",
          "type": "address"
        }
      ],
      "name": "approvers",
      "outputs": [
        {
          "internalType": "bool",
          "name": "",
          "type": "bool"
        }
      ],
      "stateMutability": "view",
      "type": "function"
    },
    {
      "inputs": [],
      "name": "approversCount",
      "outputs": [
        {
          "internalType": "uint256",
          "name": "",
          "type": "uint256"
        }
      ],
      "stateMutability": "view",
      "type": "function"
    },
    {
      "inputs": [],
      "name": "manager",
      "outputs": [
        {
          "internalType": "address",
          "name": "",
          "type": "address"
        }
      ],
      "stateMutability": "view",
      "type": "function"
    },
    {
      "inputs": [],
      "name": "minimumContribution",
      "outputs": [
        {
          "internalType": "uint256",
          "name": "",
          "type": "uint256"
        }
      ],
      "stateMutability": "view",
      "type": "function"
    },
    {
      "inputs": [
        {
          "internalType": "uint256",
          "name": "",
          "type": "uint256"
        }
      ],
      "name": "requests",
      "outputs": [
        {
          "internalType": "string",
          "name": "description",
          "type": "string"
        },
        {
          "internalType": "address",
          "name": "recipient",
          "type": "address"
        },
        {
          "internalType": "uint256",
          "name": "value",
          "type": "uint256"
        },
        {
          "internalType": "bool",
          "name": "complete",
          "type": "bool"
        },
        {
          "internalType": "uint256",
          "name": "noOfApprovals",
          "type": "uint256"
        }
      ],
      "stateMutability": "view",
      "type": "function"
    },
    {
      "inputs": [],
      "name": "contribute",
      "outputs": [],
      "stateMutability": "payable",
      "type": "function"
    },
    {
      "inputs": [
        {
          "internalType": "string",
          "name": "description",
          "type": "string"
        },
        {
          "internalType": "uint256",
          "name": "value",
          "type": "uint256"
        },
        {
          "internalType": "address",
          "name": "recipient",
          "type": "address"
        }
      ],
      "name": "createRequest",
      "outputs": [],
      "stateMutability": "nonpayable",
      "type": "function"
    },
    {
      "inputs": [
        {
          "internalType": "uint256",
          "name": "index",
          "type": "uint256"
        }
      ],
      "name": "approveReques",
      "outputs": [],
      "stateMutability": "nonpayable",
      "type": "function"
    },
    {
      "inputs": [
        {
          "internalType": "uint256",
          "name": "index",
          "type": "uint256"
        }
      ],
      "name": "finalizeRequest",
      "outputs": [],
      "stateMutability": "payable",
      "type": "function"
    }
  ],
  "bytecode": "0x60806040523480156200001157600080fd5b506040516200141d3803806200141d83398181016040528101906200003791906200012b565b806000806101000a81548173ffffffffffffffffffffffffffffffffffffffff021916908373ffffffffffffffffffffffffffffffffffffffff16021790555081600181905550505062000172565b600080fd5b6000819050919050565b620000a0816200008b565b8114620000ac57600080fd5b50565b600081519050620000c08162000095565b92915050565b600073ffffffffffffffffffffffffffffffffffffffff82169050919050565b6000620000f382620000c6565b9050919050565b6200010581620000e6565b81146200011157600080fd5b50565b6000815190506200012581620000fa565b92915050565b6000806040838503121562000145576200014462000086565b5b60006200015585828601620000af565b9250506020620001688582860162000114565b9150509250929050565b61129b80620001826000396000f3fe6080604052600436106100865760003560e01c806381d12c581161005957806381d12c581461013857806382fde093146101795780638a9cfd55146101a4578063937e09b1146101cd578063d7bb99ba146101f857610086565b8063034410061461008b5780630a144391146100a7578063481c6a75146100e45780636e06faa21461010f575b600080fd5b6100a560048036038101906100a091906109de565b610202565b005b3480156100b357600080fd5b506100ce60048036038101906100c99190610a69565b6103f2565b6040516100db9190610ab1565b60405180910390f35b3480156100f057600080fd5b506100f9610412565b6040516101069190610adb565b60405180910390f35b34801561011b57600080fd5b50610136600480360381019061013191906109de565b610436565b005b34801561014457600080fd5b5061015f600480360381019061015a91906109de565b6105ef565b604051610170959493929190610b9e565b60405180910390f35b34801561018557600080fd5b5061018e6106ea565b60405161019b9190610bf8565b60405180910390f35b3480156101b057600080fd5b506101cb60048036038101906101c69190610d48565b6106f0565b005b3480156101d957600080fd5b506101e2610834565b6040516101ef9190610bf8565b60405180910390f35b61020061083a565b005b60008054906101000a900473ffffffffffffffffffffffffffffffffffffffff1673ffffffffffffffffffffffffffffffffffffffff163373ffffffffffffffffffffffffffffffffffffffff1614610290576040517f08c379a000000000000000000000000000000000000000000000000000000000815260040161028790610e29565b60405180910390fd5b6000600382815481106102a6576102a5610e49565b5b90600052602060002090600602019050600015158160030160009054906101000a900460ff1615151461030e576040517f08c379a000000000000000000000000000000000000000000000000000000000815260040161030590610ec4565b60405180910390fd5b600260045461031d9190610f42565b816004015411610362576040517f08c379a00000000000000000000000000000000000000000000000000000000081526004016103599061100b565b60405180910390fd5b8060010160009054906101000a900473ffffffffffffffffffffffffffffffffffffffff1673ffffffffffffffffffffffffffffffffffffffff166108fc82600201549081150290604051600060405180830381858888f193505050501580156103d0573d6000803e3d6000fd5b5060018160030160006101000a81548160ff0219169083151502179055505050565b60026020528060005260406000206000915054906101000a900460ff1681565b60008054906101000a900473ffffffffffffffffffffffffffffffffffffffff1681565b60006003828154811061044c5761044b610e49565b5b90600052602060002090600602019050600260003373ffffffffffffffffffffffffffffffffffffffff1673ffffffffffffffffffffffffffffffffffffffff16815260200190815260200160002060009054906101000a900460ff166104e8576040517f08c379a00000000000000000000000000000000000000000000000000000000081526004016104df9061109d565b60405180910390fd5b8060050160003373ffffffffffffffffffffffffffffffffffffffff1673ffffffffffffffffffffffffffffffffffffffff16815260200190815260200160002060009054906101000a900460ff1615610577576040517f08c379a000000000000000000000000000000000000000000000000000000000815260040161056e90611109565b60405180910390fd5b60018160050160003373ffffffffffffffffffffffffffffffffffffffff1673ffffffffffffffffffffffffffffffffffffffff16815260200190815260200160002060006101000a81548160ff0219169083151502179055508060040160008154809291906105e690611129565b91905055505050565b600381815481106105ff57600080fd5b9060005260206000209060060201600091509050806000018054610622906111a1565b80601f016020809104026020016040519081016040528092919081815260200182805461064e906111a1565b801561069b5780601f106106705761010080835404028352916020019161069b565b820191906000526020600020905b81548152906001019060200180831161067e57829003601f168201915b5050505050908060010160009054906101000a900473ffffffffffffffffffffffffffffffffffffffff16908060020154908060030160009054906101000a900460ff16908060040154905085565b60045481565b60008054906101000a900473ffffffffffffffffffffffffffffffffffffffff1673ffffffffffffffffffffffffffffffffffffffff163373ffffffffffffffffffffffffffffffffffffffff161461077e576040517f08c379a000000000000000000000000000000000000000000000000000000000815260040161077590610e29565b60405180910390fd5b600060036001816001815401808255809150500390600052602060002090600602019050828160020181905550818160010160006101000a81548173ffffffffffffffffffffffffffffffffffffffff021916908373ffffffffffffffffffffffffffffffffffffffff160217905550838160000190805190602001906108069291906108f1565b5060008160030160006101000a81548160ff0219169083151502179055506000816004018190555050505050565b60015481565b60015434101561087f576040517f08c379a000000000000000000000000000000000000000000000000000000000815260040161087690611245565b60405180910390fd5b6001600260003373ffffffffffffffffffffffffffffffffffffffff1673ffffffffffffffffffffffffffffffffffffffff16815260200190815260200160002060006101000a81548160ff021916908315150217905550600460008154809291906108ea90611129565b9190505550565b8280546108fd906111a1565b90600052602060002090601f01602090048101928261091f5760008555610966565b82601f1061093857805160ff1916838001178555610966565b82800160010185558215610966579182015b8281111561096557825182559160200191906001019061094a565b5b5090506109739190610977565b5090565b5b80821115610990576000816000905550600101610978565b5090565b6000604051905090565b600080fd5b600080fd5b6000819050919050565b6109bb816109a8565b81146109c657600080fd5b50565b6000813590506109d8816109b2565b92915050565b6000602082840312156109f4576109f361099e565b5b6000610a02848285016109c9565b91505092915050565b600073ffffffffffffffffffffffffffffffffffffffff82169050919050565b6000610a3682610a0b565b9050919050565b610a4681610a2b565b8114610a5157600080fd5b50565b600081359050610a6381610a3d565b92915050565b600060208284031215610a7f57610a7e61099e565b5b6000610a8d84828501610a54565b91505092915050565b60008115159050919050565b610aab81610a96565b82525050565b6000602082019050610ac66000830184610aa2565b92915050565b610ad581610a2b565b82525050565b6000602082019050610af06000830184610acc565b92915050565b600081519050919050565b600082825260208201905092915050565b60005b83811015610b30578082015181840152602081019050610b15565b83811115610b3f576000848401525b50505050565b6000601f19601f8301169050919050565b6000610b6182610af6565b610b6b8185610b01565b9350610b7b818560208601610b12565b610b8481610b45565b840191505092915050565b610b98816109a8565b82525050565b600060a0820190508181036000830152610bb88188610b56565b9050610bc76020830187610acc565b610bd46040830186610b8f565b610be16060830185610aa2565b610bee6080830184610b8f565b9695505050505050565b6000602082019050610c0d6000830184610b8f565b92915050565b600080fd5b600080fd5b7f4e487b7100000000000000000000000000000000000000000000000000000000600052604160045260246000fd5b610c5582610b45565b810181811067ffffffffffffffff82111715610c7457610c73610c1d565b5b80604052505050565b6000610c87610994565b9050610c938282610c4c565b919050565b600067ffffffffffffffff821115610cb357610cb2610c1d565b5b610cbc82610b45565b9050602081019050919050565b82818337600083830152505050565b6000610ceb610ce684610c98565b610c7d565b905082815260208101848484011115610d0757610d06610c18565b5b610d12848285610cc9565b509392505050565b600082601f830112610d2f57610d2e610c13565b5b8135610d3f848260208601610cd8565b91505092915050565b600080600060608486031215610d6157610d6061099e565b5b600084013567ffffffffffffffff811115610d7f57610d7e6109a3565b5b610d8b86828701610d1a565b9350506020610d9c868287016109c9565b9250506040610dad86828701610a54565b9150509250925092565b7f4f6e6c79206d616e616765722063616e20706572666f726d207468697320616360008201527f74696f6e00000000000000000000000000000000000000000000000000000000602082015250565b6000610e13602483610b01565b9150610e1e82610db7565b604082019050919050565b60006020820190508181036000830152610e4281610e06565b9050919050565b7f4e487b7100000000000000000000000000000000000000000000000000000000600052603260045260246000fd5b7f5265717565737420697320616c72656164792066696e616c697a656400000000600082015250565b6000610eae601c83610b01565b9150610eb982610e78565b602082019050919050565b60006020820190508181036000830152610edd81610ea1565b9050919050565b7f4e487b7100000000000000000000000000000000000000000000000000000000600052601260045260246000fd5b7f4e487b7100000000000000000000000000000000000000000000000000000000600052601160045260246000fd5b6000610f4d826109a8565b9150610f58836109a8565b925082610f6857610f67610ee4565b5b828204905092915050565b7f4e6f7420656e6f75676820617070726f76616c732c2072657175657374206d7560008201527f737420686176652035302520617070726f76657273206265666f72652069742060208201527f63616e2062652066696e616c697a656400000000000000000000000000000000604082015250565b6000610ff5605083610b01565b915061100082610f73565b606082019050919050565b6000602082019050818103600083015261102481610fe8565b9050919050565b7f596f75206d75737420636f6e7472696275746520746f207468652063616d706160008201527f69676e206265666f726520796f752063616e20766f7465000000000000000000602082015250565b6000611087603783610b01565b91506110928261102b565b604082019050919050565b600060208201905081810360008301526110b68161107a565b9050919050565b7f596f752063616e206f6e6c7920766f7465206f6e636500000000000000000000600082015250565b60006110f3601683610b01565b91506110fe826110bd565b602082019050919050565b60006020820190508181036000830152611122816110e6565b9050919050565b6000611134826109a8565b91507fffffffffffffffffffffffffffffffffffffffffffffffffffffffffffffffff82141561116757611166610f13565b5b600182019050919050565b7f4e487b7100000000000000000000000000000000000000000000000000000000600052602260045260246000fd5b600060028204905060018216806111b957607f821691505b602082108114156111cd576111cc611172565b5b50919050565b7f436f6e747269627574656420616d6f756e74206973206c657373207468616e2060008201527f6d696e696d756d20616d6f756e74207265717569726564000000000000000000602082015250565b600061122f603783610b01565b915061123a826111d3565b604082019050919050565b6000602082019050818103600083015261125e81611222565b905091905056fea2646970667358221220758b83fc103ddcbd3f7dfa4d7de7ccd2d870198767a4db25a059eda57c47578164736f6c634300080c0033",
  "immutableReferences": {},
  "source": "// SPDX-License-Identifier: GPL-3.0\n\npragma solidity >=0.7.0 <0.9.0;\n\ncontract CampaignFactory {\n    address[] public deployedCampaigns;\n\n    function createCampaign(uint256 minimusAmount) public payable {\n        Campaign campaign = new Campaign(minimusAmount, msg.sender);\n        deployedCampaigns.push(address(campaign));\n    }\n\n    function getDeployedCampaigns() public view returns (address[] memory) {\n        return deployedCampaigns;\n    }\n}\n\ncontract Campaign {\n    struct Request {\n        string description;\n        address recipient;\n        uint256 value;\n        bool complete;\n        uint256 noOfApprovals;\n        mapping(address => bool) approvals;\n    }\n\n    address public manager;\n    uint256 public minimumContribution;\n\n    mapping(address => bool) public approvers;\n    Request[] public requests;\n    uint256 public approversCount;\n\n    modifier minimum() {\n        require(\n            msg.value >= minimumContribution,\n            \"Contributed amount is less than minimum amount required\"\n        );\n        _;\n    }\n\n    modifier managerOnly() {\n        require(msg.sender == manager, \"Only manager can perform this action\");\n        _;\n    }\n\n    constructor(uint256 minimumAmount, address creator) {\n        manager = creator;\n        minimumContribution = minimumAmount;\n    }\n\n    function contribute() public payable minimum {\n        approvers[msg.sender] = true;\n        approversCount++;\n    }\n\n    function createRequest(\n        string memory description,\n        uint256 value,\n        address recipient\n    ) public managerOnly {\n        Request storage newRequest = requests.push();\n        newRequest.value = value;\n        newRequest.recipient = recipient;\n        newRequest.description = description;\n        newRequest.complete = false;\n        newRequest.noOfApprovals = 0;\n    }\n\n    function approveReques(uint256 index) public {\n        Request storage request = requests[index];\n        require(\n            approvers[msg.sender],\n            \"You must contribute to the campaign before you can vote\"\n        );\n        require(!request.approvals[msg.sender], \"You can only vote once\");\n        request.approvals[msg.sender] = true;\n        request.noOfApprovals++;\n    }\n\n    function finalizeRequest(uint256 index) public payable managerOnly {\n        Request storage request = requests[index];\n        require(request.complete == false, \"Request is already finalized\");\n        require(\n            request.noOfApprovals > approversCount / 2,\n            \"Not enough approvals, request must have 50% approvers before it can be finalized\"\n        );\n        payable(request.recipient).transfer(request.value);\n        request.complete = true;\n    }\n}\n",
  "sourcePath": "/Users/charlesarchibong/Documents/dev.nosync/BlockchainProjects/Contracts/compaign_contract/smart_contract/contracts/Campaign.sol",
  "compiler": {
    "name": "solc",
    "version": "0.8.12+commit.f00d7308.Emscripten.clang"
  },
  "schemaVersion": "3.4.4",
  "updatedAt": "2022-03-08T03:02:50.971Z",
  "devdoc": {
    "kind": "dev",
    "methods": {},
    "version": 1
  },
  "userdoc": {
    "kind": "user",
    "methods": {},
    "version": 1
  }
}